{
  "contractName": "Gateway",
  "abi": [
    {
      "constant": false,
      "inputs": [
        {
          "name": "_token",
          "type": "address"
        }
      ],
      "name": "toggleToken",
      "outputs": [],
      "payable": false,
      "stateMutability": "nonpayable",
      "type": "function",
      "signature": "0x15c75f89"
    },
    {
      "constant": false,
      "inputs": [
        {
          "name": "amount",
          "type": "uint256"
        },
        {
          "name": "sig",
          "type": "bytes"
        },
        {
          "name": "contractAddress",
          "type": "address"
        }
      ],
      "name": "withdrawERC20",
      "outputs": [],
      "payable": false,
      "stateMutability": "nonpayable",
      "type": "function",
      "signature": "0x2cd2e930"
    },
    {
      "constant": true,
      "inputs": [],
      "name": "loomAddress",
      "outputs": [
        {
          "name": "",
          "type": "address"
        }
      ],
      "payable": false,
      "stateMutability": "view",
      "type": "function",
      "signature": "0x37179db8"
    },
    {
      "constant": false,
      "inputs": [
        {
          "name": "amount",
          "type": "uint256"
        },
        {
          "name": "contractAddress",
          "type": "address"
        }
      ],
      "name": "depositERC20",
      "outputs": [],
      "payable": false,
      "stateMutability": "nonpayable",
      "type": "function",
      "signature": "0x392d661c"
    },
    {
      "constant": true,
      "inputs": [
        {
          "name": "contractAddress",
          "type": "address"
        }
      ],
      "name": "getERC20",
      "outputs": [
        {
          "name": "",
          "type": "uint256"
        }
      ],
      "payable": false,
      "stateMutability": "view",
      "type": "function",
      "signature": "0x4e0dc557"
    },
    {
      "constant": true,
      "inputs": [],
      "name": "numValidators",
      "outputs": [
        {
          "name": "",
          "type": "uint256"
        }
      ],
      "payable": false,
      "stateMutability": "view",
      "type": "function",
      "signature": "0x5d593f8d"
    },
    {
      "constant": false,
      "inputs": [],
      "name": "renounceOwnership",
      "outputs": [],
      "payable": false,
      "stateMutability": "nonpayable",
      "type": "function",
      "signature": "0x715018a6"
    },
    {
      "constant": true,
      "inputs": [
        {
          "name": "_address",
          "type": "address"
        }
      ],
      "name": "checkValidator",
      "outputs": [
        {
          "name": "",
          "type": "bool"
        }
      ],
      "payable": false,
      "stateMutability": "view",
      "type": "function",
      "signature": "0x797327ae"
    },
    {
      "constant": true,
      "inputs": [
        {
          "name": "",
          "type": "address"
        }
      ],
      "name": "nonces",
      "outputs": [
        {
          "name": "",
          "type": "uint256"
        }
      ],
      "payable": false,
      "stateMutability": "view",
      "type": "function",
      "signature": "0x7ecebe00"
    },
    {
      "constant": true,
      "inputs": [],
      "name": "allowAnyToken",
      "outputs": [
        {
          "name": "",
          "type": "bool"
        }
      ],
      "payable": false,
      "stateMutability": "view",
      "type": "function",
      "signature": "0x8025d570"
    },
    {
      "constant": true,
      "inputs": [],
      "name": "owner",
      "outputs": [
        {
          "name": "",
          "type": "address"
        }
      ],
      "payable": false,
      "stateMutability": "view",
      "type": "function",
      "signature": "0x8da5cb5b"
    },
    {
      "constant": false,
      "inputs": [
        {
          "name": "_validator",
          "type": "address"
        },
        {
          "name": "_v",
          "type": "uint8[]"
        },
        {
          "name": "_r",
          "type": "bytes32[]"
        },
        {
          "name": "_s",
          "type": "bytes32[]"
        }
      ],
      "name": "addValidator",
      "outputs": [],
      "payable": false,
      "stateMutability": "nonpayable",
      "type": "function",
      "signature": "0x90b616c8"
    },
    {
      "constant": true,
      "inputs": [],
      "name": "nonce",
      "outputs": [
        {
          "name": "",
          "type": "uint256"
        }
      ],
      "payable": false,
      "stateMutability": "view",
      "type": "function",
      "signature": "0xaffed0e0"
    },
    {
      "constant": false,
      "inputs": [
        {
          "name": "_validator",
          "type": "address"
        },
        {
          "name": "_v",
          "type": "uint8[]"
        },
        {
          "name": "_r",
          "type": "bytes32[]"
        },
        {
          "name": "_s",
          "type": "bytes32[]"
        }
      ],
      "name": "removeValidator",
      "outputs": [],
      "payable": false,
      "stateMutability": "nonpayable",
      "type": "function",
      "signature": "0xc7e7f6f6"
    },
    {
      "constant": false,
      "inputs": [
        {
          "name": "_allow",
          "type": "bool"
        }
      ],
      "name": "toggleAllowAnyToken",
      "outputs": [],
      "payable": false,
      "stateMutability": "nonpayable",
      "type": "function",
      "signature": "0xe402fbc8"
    },
    {
      "constant": true,
      "inputs": [
        {
          "name": "",
          "type": "address"
        }
      ],
      "name": "allowedTokens",
      "outputs": [
        {
          "name": "",
          "type": "bool"
        }
      ],
      "payable": false,
      "stateMutability": "view",
      "type": "function",
      "signature": "0xe744092e"
    },
    {
      "constant": false,
      "inputs": [
        {
          "name": "_newOwner",
          "type": "address"
        }
      ],
      "name": "transferOwnership",
      "outputs": [],
      "payable": false,
      "stateMutability": "nonpayable",
      "type": "function",
      "signature": "0xf2fde38b"
    },
    {
      "inputs": [
        {
          "name": "loomToken",
          "type": "address"
        },
        {
          "name": "_validators",
          "type": "address[]"
        },
        {
          "name": "_threshold_num",
          "type": "uint8"
        },
        {
          "name": "_threshold_denom",
          "type": "uint8"
        }
      ],
      "payable": false,
      "stateMutability": "nonpayable",
      "type": "constructor",
      "signature": "constructor"
    },
    {
      "payable": true,
      "stateMutability": "payable",
      "type": "fallback"
    },
    {
      "anonymous": false,
      "inputs": [
        {
          "indexed": false,
          "name": "from",
          "type": "address"
        },
        {
          "indexed": false,
          "name": "amount",
          "type": "uint256"
        }
      ],
      "name": "ETHReceived",
      "type": "event",
      "signature": "0xbfe611b001dfcd411432f7bf0d79b82b4b2ee81511edac123a3403c357fb972a"
    },
    {
      "anonymous": false,
      "inputs": [
        {
          "indexed": false,
          "name": "operator",
          "type": "address"
        },
        {
          "indexed": false,
          "name": "from",
          "type": "address"
        },
        {
          "indexed": false,
          "name": "tokenId",
          "type": "uint256"
        },
        {
          "indexed": false,
          "name": "contractAddress",
          "type": "address"
        },
        {
          "indexed": false,
          "name": "data",
          "type": "bytes"
        }
      ],
      "name": "ERC721Received",
      "type": "event",
      "signature": "0x691f4eac2b8850491851c72f70a121d76b20836d776658438f5b13dd9f8dbc6e"
    },
    {
      "anonymous": false,
      "inputs": [
        {
          "indexed": false,
          "name": "operator",
          "type": "address"
        },
        {
          "indexed": false,
          "name": "from",
          "type": "address"
        },
        {
          "indexed": false,
          "name": "tokenId",
          "type": "uint256"
        },
        {
          "indexed": false,
          "name": "amount",
          "type": "uint256"
        },
        {
          "indexed": false,
          "name": "contractAddress",
          "type": "address"
        },
        {
          "indexed": false,
          "name": "data",
          "type": "bytes"
        }
      ],
      "name": "ERC721XReceived",
      "type": "event",
      "signature": "0xc341982fb8843f55f2f7aae4eb89231a4ef94a199f370debe7bc5c07c2de2bab"
    },
    {
      "anonymous": false,
      "inputs": [
        {
          "indexed": false,
          "name": "operator",
          "type": "address"
        },
        {
          "indexed": false,
          "name": "to",
          "type": "address"
        },
        {
          "indexed": false,
          "name": "tokenTypes",
          "type": "uint256[]"
        },
        {
          "indexed": false,
          "name": "amounts",
          "type": "uint256[]"
        },
        {
          "indexed": false,
          "name": "contractAddress",
          "type": "address"
        },
        {
          "indexed": false,
          "name": "data",
          "type": "bytes"
        }
      ],
      "name": "ERC721XBatchReceived",
      "type": "event",
      "signature": "0x48d67933be7b1e6d77d914145d793b5c9ced38156f34ebab23216e085435ac55"
    },
    {
      "anonymous": false,
      "inputs": [
        {
          "indexed": false,
          "name": "from",
          "type": "address"
        },
        {
          "indexed": false,
          "name": "amount",
          "type": "uint256"
        },
        {
          "indexed": false,
          "name": "contractAddress",
          "type": "address"
        }
      ],
      "name": "ERC20Received",
      "type": "event",
      "signature": "0xa13cf347fb36122550e414f6fd1a0c2e490cff76331c4dcc20f760891ecca12a"
    },
    {
      "anonymous": false,
      "inputs": [
        {
          "indexed": true,
          "name": "owner",
          "type": "address"
        },
        {
          "indexed": false,
          "name": "kind",
          "type": "uint8"
        },
        {
          "indexed": false,
          "name": "contractAddress",
          "type": "address"
        },
        {
          "indexed": false,
          "name": "value",
          "type": "uint256"
        }
      ],
      "name": "TokenWithdrawn",
      "type": "event",
      "signature": "0x591f2d33d85291e32c4067b5a497caf3ddb5b1830eba9909e66006ec3a0051b4"
    },
    {
      "anonymous": false,
      "inputs": [
        {
          "indexed": true,
          "name": "from",
          "type": "address"
        },
        {
          "indexed": false,
          "name": "amount",
          "type": "uint256"
        },
        {
          "indexed": false,
          "name": "loomCoinAddress",
          "type": "address"
        }
      ],
      "name": "LoomCoinReceived",
      "type": "event",
      "signature": "0x91557346f7592c9279b67cc52709a00442f0597658ec38a5fe84568c016331d7"
    },
    {
      "anonymous": false,
      "inputs": [
        {
          "indexed": false,
          "name": "validator",
          "type": "address"
        }
      ],
      "name": "AddedValidator",
      "type": "event",
      "signature": "0x8e15bf46bd11add443414ada75aa9592a4af68f3f2ec02ae3d49572f9843c2a8"
    },
    {
      "anonymous": false,
      "inputs": [
        {
          "indexed": false,
          "name": "validator",
          "type": "address"
        }
      ],
      "name": "RemovedValidator",
      "type": "event",
      "signature": "0xb625c55cf7e37b54fcd18bc4edafdf3f4f9acd59a5ec824c77c795dcb2d65070"
    },
    {
      "anonymous": false,
      "inputs": [
        {
          "indexed": true,
          "name": "previousOwner",
          "type": "address"
        }
      ],
      "name": "OwnershipRenounced",
      "type": "event",
      "signature": "0xf8df31144d9c2f0f6b59d69b8b98abd5459d07f2742c4df920b25aae33c64820"
    },
    {
      "anonymous": false,
      "inputs": [
        {
          "indexed": true,
          "name": "previousOwner",
          "type": "address"
        },
        {
          "indexed": true,
          "name": "newOwner",
          "type": "address"
        }
      ],
      "name": "OwnershipTransferred",
      "type": "event",
      "signature": "0x8be0079c531659141344cd1fd0a4f28419497f9722a3daafe3b4186f6b6457e0"
    },
    {
      "constant": false,
      "inputs": [
        {
          "name": "tokenId",
          "type": "uint256"
        },
        {
          "name": "amount",
          "type": "uint256"
        },
        {
          "name": "sig",
          "type": "bytes"
        },
        {
          "name": "contractAddress",
          "type": "address"
        }
      ],
      "name": "withdrawERC721X",
      "outputs": [],
      "payable": false,
      "stateMutability": "nonpayable",
      "type": "function",
      "signature": "0xe246e933"
    },
    {
      "constant": false,
      "inputs": [
        {
          "name": "uid",
          "type": "uint256"
        },
        {
          "name": "sig",
          "type": "bytes"
        },
        {
          "name": "contractAddress",
          "type": "address"
        }
      ],
      "name": "withdrawERC721",
      "outputs": [],
      "payable": false,
      "stateMutability": "nonpayable",
      "type": "function",
      "signature": "0xc899a86b"
    },
    {
      "constant": false,
      "inputs": [
        {
          "name": "amount",
          "type": "uint256"
        },
        {
          "name": "sig",
          "type": "bytes"
        }
      ],
      "name": "withdrawETH",
      "outputs": [],
      "payable": false,
      "stateMutability": "nonpayable",
      "type": "function",
      "signature": "0x3ef32986"
    },
    {
      "constant": false,
      "inputs": [
        {
          "name": "_operator",
          "type": "address"
        },
        {
          "name": "_from",
          "type": "address"
        },
        {
          "name": "_tokenId",
          "type": "uint256"
        },
        {
          "name": "_amount",
          "type": "uint256"
        },
        {
          "name": "_data",
          "type": "bytes"
        }
      ],
      "name": "onERC721XReceived",
      "outputs": [
        {
          "name": "",
          "type": "bytes4"
        }
      ],
      "payable": false,
      "stateMutability": "nonpayable",
      "type": "function",
      "signature": "0x93ba7daa"
    },
    {
      "constant": false,
      "inputs": [
        {
          "name": "_operator",
          "type": "address"
        },
        {
          "name": "_from",
          "type": "address"
        },
        {
          "name": "_types",
          "type": "uint256[]"
        },
        {
          "name": "_amounts",
          "type": "uint256[]"
        },
        {
          "name": "_data",
          "type": "bytes"
        }
      ],
      "name": "onERC721XBatchReceived",
      "outputs": [
        {
          "name": "",
          "type": "bytes4"
        }
      ],
      "payable": false,
      "stateMutability": "nonpayable",
      "type": "function",
      "signature": "0xb3b0f4c7"
    },
    {
      "constant": false,
      "inputs": [
        {
          "name": "_operator",
          "type": "address"
        },
        {
          "name": "_from",
          "type": "address"
        },
        {
          "name": "_uid",
          "type": "uint256"
        },
        {
          "name": "_data",
          "type": "bytes"
        }
      ],
      "name": "onERC721Received",
      "outputs": [
        {
          "name": "",
          "type": "bytes4"
        }
      ],
      "payable": false,
      "stateMutability": "nonpayable",
      "type": "function",
      "signature": "0x150b7a02"
    },
    {
      "constant": true,
      "inputs": [],
      "name": "getETH",
      "outputs": [
        {
          "name": "",
          "type": "uint256"
        }
      ],
      "payable": false,
      "stateMutability": "view",
      "type": "function",
      "signature": "0x14f6c3be"
    },
    {
      "constant": true,
      "inputs": [
        {
          "name": "uid",
          "type": "uint256"
        },
        {
          "name": "contractAddress",
          "type": "address"
        }
      ],
      "name": "getERC721",
      "outputs": [
        {
          "name": "",
          "type": "bool"
        }
      ],
      "payable": false,
      "stateMutability": "view",
      "type": "function",
      "signature": "0x4e56ef52"
    },
    {
      "constant": true,
      "inputs": [
        {
          "name": "tokenId",
          "type": "uint256"
        },
        {
          "name": "contractAddress",
          "type": "address"
        }
      ],
      "name": "getERC721X",
      "outputs": [
        {
          "name": "",
          "type": "uint256"
        }
      ],
      "payable": false,
      "stateMutability": "view",
      "type": "function",
      "signature": "0xb4c60342"
    }
  ],
  "bytecode": "0x60806040526007805460ff191690553480156200001b57600080fd5b506040516200271e3803806200271e8339810160409081528151602083015191830151606084015160008054600160a060020a0319163317815593909401805192949093919290918591859185918591849184918491908082116200007f57600080fd5b506004805460ff8481166101000261ff001991871660ff19909316929092171617905560005b8181101562000186578451600090869083908110620000c057fe5b60209081029091010151600160a060020a03161415620000df57600080fd5b6001600360008784815181101515620000f457fe5b602090810291909101810151600160a060020a03168252810191909152604001600020805460ff191691151591909117905584517f8e15bf46bd11add443414ada75aa9592a4af68f3f2ec02ae3d49572f9843c2a8908690839081106200015757fe5b602090810290910181015160408051600160a060020a039092168252519081900390910190a1600101620000a5565b50509151600555505060078054600160a060020a039095166101000261010060a860020a0319909516949094179093555050505050505061255180620001cd6000396000f3006080604052600436106101535763ffffffff7c010000000000000000000000000000000000000000000000000000000060003504166314f6c3be811461018f578063150b7a02146101b657806315c75f891461025a5780632cd2e9301461027d57806337179db8146102ad578063392d661c146102de5780633ef32986146103025780634e0dc557146103265780634e56ef52146103475780635d593f8d1461037f578063715018a614610394578063797327ae146103a95780637ecebe00146103ca5780638025d570146103eb5780638da5cb5b1461040057806390b616c81461041557806393ba7daa1461045a578063affed0e0146104d1578063b3b0f4c7146104e6578063b4c60342146105c8578063c7e7f6f6146105ec578063c899a86b14610631578063e246e93314610661578063e402fbc814610695578063e744092e146106af578063f2fde38b146106d0575b6040805133815234602082015281517fbfe611b001dfcd411432f7bf0d79b82b4b2ee81511edac123a3403c357fb972a929181900390910190a1005b34801561019b57600080fd5b506101a46106f1565b60408051918252519081900360200190f35b3480156101c257600080fd5b50604080516020601f60643560048181013592830184900484028501840190955281845261022594600160a060020a0381358116956024803590921695604435953695608494019181908401838280828437509497506106f69650505050505050565b604080517fffffffff000000000000000000000000000000000000000000000000000000009092168252519081900360200190f35b34801561026657600080fd5b5061027b600160a060020a0360043516610888565b005b34801561028957600080fd5b5061027b600480359060248035908101910135600160a060020a03604435166108c5565b3480156102b957600080fd5b506102c2610ba3565b60408051600160a060020a039092168252519081900360200190f35b3480156102ea57600080fd5b5061027b600435600160a060020a0360243516610bb7565b34801561030e57600080fd5b5061027b600480359060248035908101910135610d51565b34801561033257600080fd5b506101a4600160a060020a0360043516610ed5565b34801561035357600080fd5b5061036b600435600160a060020a0360243516610f6d565b604080519115158252519081900360200190f35b34801561038b57600080fd5b506101a4611018565b3480156103a057600080fd5b5061027b61101e565b3480156103b557600080fd5b5061036b600160a060020a036004351661108a565b3480156103d657600080fd5b506101a4600160a060020a03600435166110c8565b3480156103f757600080fd5b5061036b6110da565b34801561040c57600080fd5b506102c26110e3565b34801561042157600080fd5b5061027b60048035600160a060020a031690602480358082019290810135916044358082019290810135916064359081019101356110f2565b34801561046657600080fd5b50604080516020601f60843560048181013592830184900484028501840190955281845261022594600160a060020a0381358116956024803590921695604435956064359536959460a494939101919081908401838280828437509497506113309650505050505050565b3480156104dd57600080fd5b506101a46114cb565b3480156104f257600080fd5b506040805160206004604435818101358381028086018501909652808552610225958335600160a060020a039081169660248035909216963696956064959294930192829185019084908082843750506040805187358901803560208181028481018201909552818452989b9a99890198929750908201955093508392508501908490808284375050604080516020601f89358b018035918201839004830284018301909452808352979a9998810197919650918201945092508291508401838280828437509497506114d19650505050505050565b3480156105d457600080fd5b506101a4600435600160a060020a03602435166116fb565b3480156105f857600080fd5b5061027b60048035600160a060020a03169060248035808201929081013591604435808201929081013591606435908101910135611797565b34801561063d57600080fd5b5061027b600480359060248035908101910135600160a060020a03604435166119ad565b34801561066d57600080fd5b5061027b60048035906024803591604435918201910135600160a060020a0360643516611bac565b3480156106a157600080fd5b5061027b6004351515611d83565b3480156106bb57600080fd5b5061036b600160a060020a0360043516611daa565b3480156106dc57600080fd5b5061027b600160a060020a0360043516611dbf565b303190565b60075460009060ff168061071957503360009081526001602052604090205460ff165b151561076f576040805160e560020a62461bcd02815260206004820152601160248201527f4e6f7420612076616c696420746f6b656e000000000000000000000000000000604482015290519081900360640190fd5b7f691f4eac2b8850491851c72f70a121d76b20836d776658438f5b13dd9f8dbc6e85858533866040518086600160a060020a0316600160a060020a0316815260200185600160a060020a0316600160a060020a0316815260200184815260200183600160a060020a0316600160a060020a0316815260200180602001828103825283818151815260200191508051906020019080838360005b83811015610820578181015183820152602001610808565b50505050905090810190601f16801561084d5780820380516001836020036101000a031916815260200191505b50965050505050505060405180910390a1507f150b7a0200000000000000000000000000000000000000000000000000000000949350505050565b6108913361108a565b151561089c57600080fd5b600160a060020a03166000908152600160205260409020805460ff19811660ff90911615179055565b6040805160208082018790526c01000000000000000000000000600160a060020a03851602828401528251603481840301815260549092019283905281516000936109679392909182918401908083835b602083106109355780518252601f199092019160209182019101610916565b6001836020036101000a0380198251168184511680821785525050505050509050019150506040518091039020611de2565b84848080601f01602080910402602001604051908101604052809392919081815260200183838082843750600094506109ad93508692508591505063ffffffff611e9a16565b600160a060020a03811660009081526003602052604090205490915060ff161515610a1d576040805160e560020a62461bcd0281526020600482015260216024820152600080516020612506833981519152604482015260f960020a603902606482015290519081900360840190fd5b604080517fa9059cbb000000000000000000000000000000000000000000000000000000008152336004820152602481018a90529051600160a060020a0387169163a9059cbb9160448083019260209291908290030181600087803b158015610a8557600080fd5b505af1158015610a99573d6000803e3d6000fd5b505050506040513d6020811015610aaf57600080fd5b50511515610b07576040805160e560020a62461bcd02815260206004820152600f60248201527f5472616e73666572206661696c65640000000000000000000000000000000000604482015290519081900360640190fd5b600754600160a060020a038681166101009092041614610b28576001610b2b565b60045b935033600160a060020a03166000805160206124e683398151915285878b60405180846004811115610b5957fe5b60ff168152600160a060020a0390931660208401525060408083019190915251908190036060019150a2505033600090815260026020526040902080546001019055505050505050565b6007546101009004600160a060020a031681565b604080517f23b872dd000000000000000000000000000000000000000000000000000000008152336004820152306024820152604481018490529051600160a060020a038316916323b872dd9160648083019260209291908290030181600087803b158015610c2557600080fd5b505af1158015610c39573d6000803e3d6000fd5b505050506040513d6020811015610c4f57600080fd5b50511515610ca7576040805160e560020a62461bcd02815260206004820152600f60248201527f5472616e73666572206661696c65640000000000000000000000000000000000604482015290519081900360640190fd5b6040805133815260208101849052600160a060020a0383168183015290517fa13cf347fb36122550e414f6fd1a0c2e490cff76331c4dcc20f760891ecca12a9181900360600190a1600754600160a060020a03828116610100909204161415610d4d5760408051838152600160a060020a0383166020820152815133927f91557346f7592c9279b67cc52709a00442f0597658ec38a5fe84568c016331d7928290030190a25b5050565b610da28360405160200180828152602001915050604051602081830303815290604052604051808280519060200190808383602083106109355780518252601f199092019160209182019101610916565b82828080601f0160208091040260200160405190810160405280939291908181526020018383808284375060009450610de893508692508591505063ffffffff611e9a16565b600160a060020a03811660009081526003602052604090205490915060ff161515610e58576040805160e560020a62461bcd0281526020600482015260216024820152600080516020612506833981519152604482015260f960020a603902606482015290519081900360840190fd5b604051339087156108fc029088906000818181858888f19350505050158015610e85573d6000803e3d6000fd5b506040805160008082526020820152808201889052905133916000805160206124e6833981519152919081900360600190a250503360009081526002602052604090208054600101905550505050565b604080517f70a082310000000000000000000000000000000000000000000000000000000081523060048201529051600091600160a060020a038416916370a082319160248082019260209290919082900301818787803b158015610f3957600080fd5b505af1158015610f4d573d6000803e3d6000fd5b505050506040513d6020811015610f6357600080fd5b505190505b919050565b600030600160a060020a031682600160a060020a0316636352211e856040518263ffffffff167c010000000000000000000000000000000000000000000000000000000002815260040180828152602001915050602060405180830381600087803b158015610fdb57600080fd5b505af1158015610fef573d6000803e3d6000fd5b505050506040513d602081101561100557600080fd5b5051600160a060020a0316149392505050565b60055481565b600054600160a060020a0316331461103557600080fd5b60008054604051600160a060020a03909116917ff8df31144d9c2f0f6b59d69b8b98abd5459d07f2742c4df920b25aae33c6482091a26000805473ffffffffffffffffffffffffffffffffffffffff19169055565b60008054600160a060020a03838116911614156110a957506001610f68565b50600160a060020a031660009081526003602052604090205460ff1690565b60026020526000908152604090205481565b60075460ff1681565b600054600160a060020a031681565b604080517f61646400000000000000000000000000000000000000000000000000000000006020808301919091526c01000000000000000000000000600160a060020a038b160260238301528251601781840301815260379092019283905281516111b393918291908401908083835b602083106111815780518252601f199092019160209182019101611162565b6001836020036101000a03801982511681845116808217855250505050505090500191505060405180910390206120f6565b8686808060200260200160405190810160405280939291908181526020018383602002808284375050604080516020808c0282810182019093528b82529095508b94508a93508392508501908490808284375050604080516020808b0282810182019093528a82529095508a945089935083925085019084908082843782019150505050505061124584848484612169565b600160a060020a038b1660009081526003602052604090205460ff16156112b6576040805160e560020a62461bcd02815260206004820152601360248201527f416c726561647920612076616c696461746f7200000000000000000000000000604482015290519081900360640190fd5b600160a060020a038b16600081815260036020908152604091829020805460ff19166001908117909155600580549091019055815192835290517f8e15bf46bd11add443414ada75aa9592a4af68f3f2ec02ae3d49572f9843c2a89281900390910190a15050600680546001019055505050505050505050565b60075460009060ff168061135357503360009081526001602052604090205460ff165b15156113a9576040805160e560020a62461bcd02815260206004820152601160248201527f4e6f7420612076616c696420746f6b656e000000000000000000000000000000604482015290519081900360640190fd5b7fc341982fb8843f55f2f7aae4eb89231a4ef94a199f370debe7bc5c07c2de2bab8686868633876040518087600160a060020a0316600160a060020a0316815260200186600160a060020a0316600160a060020a0316815260200185815260200184815260200183600160a060020a0316600160a060020a0316815260200180602001828103825283818151815260200191508051906020019080838360005b83811015611461578181015183820152602001611449565b50505050905090810190601f16801561148e5780820380516001836020036101000a031916815260200191505b5097505050505050505060405180910390a1507f660b33700000000000000000000000000000000000000000000000000000000095945050505050565b60065481565b600754600090819060ff16806114f657503360009081526001602052604090205460ff165b151561154c576040805160e560020a62461bcd02815260206004820152601160248201527f4e6f7420612076616c696420746f6b656e000000000000000000000000000000604482015290519081900360640190fd5b5083518351811461155c57600080fd5b7f48d67933be7b1e6d77d914145d793b5c9ced38156f34ebab23216e085435ac558787878733886040518087600160a060020a0316600160a060020a0316815260200186600160a060020a0316600160a060020a03168152602001806020018060200185600160a060020a0316600160a060020a0316815260200180602001848103845288818151815260200191508051906020019060200280838360005b838110156116135781810151838201526020016115fb565b50505050905001848103835287818151815260200191508051906020019060200280838360005b8381101561165257818101518382015260200161163a565b50505050905001848103825285818151815260200191508051906020019080838360005b8381101561168e578181015183820152602001611676565b50505050905090810190601f1680156116bb5780820380516001836020036101000a031916815260200191505b50995050505050505050505060405180910390a1507fe9e5be6a000000000000000000000000000000000000000000000000000000009695505050505050565b604080517efdd58e000000000000000000000000000000000000000000000000000000008152306004820152602481018490529051600091600160a060020a0384169162fdd58e9160448082019260209290919082900301818787803b15801561176457600080fd5b505af1158015611778573d6000803e3d6000fd5b505050506040513d602081101561178e57600080fd5b50519392505050565b604080517f72656d6f766500000000000000000000000000000000000000000000000000006020808301919091526c01000000000000000000000000600160a060020a038b160260268301528251601a818403018152603a9092019283905281516118259391829190840190808383602083106111815780518252601f199092019160209182019101611162565b8686808060200260200160405190810160405280939291908181526020018383602002808284375050604080516020808c0282810182019093528b82529095508b94508a93508392508501908490808284375050604080516020808b0282810182019093528a82529095508a94508993508392508501908490808284378201915050505050506118b784848484612169565b600160a060020a038b1660009081526003602052604090205460ff161515611929576040805160e560020a62461bcd02815260206004820152600f60248201527f4e6f7420612076616c696461746f720000000000000000000000000000000000604482015290519081900360640190fd5b60055460011061193857600080fd5b600160a060020a038b16600081815260036020908152604091829020805460ff1916905560058054600019019055815192835290517fb625c55cf7e37b54fcd18bc4edafdf3f4f9acd59a5ec824c77c795dcb2d650709281900390910190a15050600680546001019055505050505050505050565b6040805160208082018790526c01000000000000000000000000600160a060020a0385160282840152825160348184030181526054909201928390528151611a189391829190840190808383602083106109355780518252601f199092019160209182019101610916565b83838080601f0160208091040260200160405190810160405280939291908181526020018383808284375060009450611a5e93508692508591505063ffffffff611e9a16565b600160a060020a03811660009081526003602052604090205490915060ff161515611ace576040805160e560020a62461bcd0281526020600482015260216024820152600080516020612506833981519152604482015260f960020a603902606482015290519081900360840190fd5b604080517f42842e0e000000000000000000000000000000000000000000000000000000008152306004820152336024820152604481018990529051600160a060020a038616916342842e0e91606480830192600092919082900301818387803b158015611b3b57600080fd5b505af1158015611b4f573d6000803e3d6000fd5b50506040805160028152600160a060020a03881660208201528082018b905290513393506000805160206124e683398151915292509081900360600190a25050336000908152600260205260409020805460010190555050505050565b6040805160208082018890528183018790526c01000000000000000000000000600160a060020a038516026060830152825160548184030181526074909201928390528151611c1e9391829190840190808383602083106109355780518252601f199092019160209182019101610916565b83838080601f0160208091040260200160405190810160405280939291908181526020018383808284375060009450611c6493508692508591505063ffffffff611e9a16565b600160a060020a03811660009081526003602052604090205490915060ff161515611cd4576040805160e560020a62461bcd0281526020600482015260216024820152600080516020612506833981519152604482015260f960020a603902606482015290519081900360840190fd5b604080517f0febdd49000000000000000000000000000000000000000000000000000000008152306004820152336024820152604481018a9052606481018990529051600160a060020a03861691630febdd4991608480830192600092919082900301818387803b158015611d4857600080fd5b505af1158015611d5c573d6000803e3d6000fd5b50506040513392506000805160206124e6833981519152915060039087908b908084610b59565b611d8c3361108a565b1515611d9757600080fd5b6007805460ff1916911515919091179055565b60016020526000908152604090205460ff1681565b600054600160a060020a03163314611dd657600080fd5b611ddf81612468565b50565b3360008181526002602090815260408083205481516c01000000000000000000000000958602818501526034810191909152309094026054850152606880850186905281518086039091018152608890940190819052835192939290918291908401908083835b60208310611e685780518252601f199092019160209182019101611e49565b5181516020939093036101000a6000190180199091169216919091179052604051920182900390912095945050505050565b600080600080600085516042141515611eb257600080fd5b856000815181101515611ec157fe5b90602001015160f860020a900460f860020a0260f860020a900460ff166002811115611ee957fe5b9350602186015191506041860151905060ff604287015116925060016002811115611f1057fe5b846002811115611f1c57fe5b1415611fcc57604080517f19457468657265756d205369676e6564204d6573736167653a0a333200000000602080830191909152603c8083018b905283518084039091018152605c90920192839052815191929182918401908083835b60208310611f985780518252601f199092019160209182019101611f79565b6001836020036101000a03801982511681845116808217855250505050505090500191505060405180910390209650612086565b6002846002811115611fda57fe5b141561208657604080517f19457468657265756d205369676e6564204d6573736167653a0a200000000000602080830191909152603b8083018b905283518084039091018152605b90920192839052815191929182918401908083835b602083106120565780518252601f199092019160209182019101612037565b6001836020036101000a038019825116818451168082178552505050505050905001915050604051809103902096505b60408051600080825260208083018085528b905260ff8716838501526060830186905260808301859052925160019360a0808501949193601f19840193928390039091019190865af11580156120e0573d6000803e3d6000fd5b5050604051601f19015198975050505050505050565b600654604080516c0100000000000000000000000030026020808301919091526034820193909352605480820185905282518083039091018152607490910191829052805160009391929182919084019080838360208310611e685780518252601f199092019160209182019101611e49565b6000806000806000808851118015612182575086518851145b801561218f575085518751145b15156121e5576040805160e560020a62461bcd02815260206004820152601a60248201527f496e636f7272656374206e756d626572206f6620706172616d73000000000000604482015290519081900360640190fd5b60045460055460ff6101008304811692160281151561220057fe5b0488511015151561225b576040805160e560020a62461bcd02815260206004820152601060248201527f4e6f7420656e6f75676820766f74657300000000000000000000000000000000604482015290519081900360640190fd5b604080517f19457468657265756d205369676e6564204d6573736167653a0a333200000000602080830191909152603c8083018d905283518084039091018152605c90920192839052815191929182918401908083835b602083106122d15780518252601f1990920191602091820191016122b2565b6001836020036101000a038019825116818451168082178552505050505050905001915050604051809103902094508751935060009250600091505b8382101561245d57600185898481518110151561232657fe5b90602001906020020151898581518110151561233e57fe5b90602001906020020151898681518110151561235657fe5b60209081029091018101516040805160008082528185018084529790975260ff9095168582015260608501939093526080840152905160a0808401949293601f19830193908390039091019190865af11580156123b7573d6000803e3d6000fd5b50505060206040510351905082600160a060020a031681600160a060020a03161180156123fc5750600160a060020a03811660009081526003602052604090205460ff165b1515612452576040805160e560020a62461bcd02815260206004820152601f60248201527f4e6f74207369676e656420627920656e6f7567682076616c696461746f727300604482015290519081900360640190fd5b91506001018161230d565b505050505050505050565b600160a060020a038116151561247d57600080fd5b60008054604051600160a060020a03808516939216917f8be0079c531659141344cd1fd0a4f28419497f9722a3daafe3b4186f6b6457e091a36000805473ffffffffffffffffffffffffffffffffffffffff1916600160a060020a03929092169190911790555600591f2d33d85291e32c4067b5a497caf3ddb5b1830eba9909e66006ec3a0051b44d657373616765206e6f74207369676e656420627920612076616c696461746fa165627a7a7230582078f9afe30550d093a12de372ec4082b432f2343736032b86d5a3f6f397b4b20e0029",
  "source": "pragma solidity ^0.4.24;\n\nimport \"openzeppelin-solidity/contracts/token/ERC721/ERC721.sol\";\nimport \"openzeppelin-solidity/contracts/token/ERC721/ERC721Receiver.sol\";\n\nimport \"erc721x/contracts/Interfaces/ERC721X.sol\";\nimport \"erc721x/contracts/Interfaces/ERC721XReceiver.sol\";\n\nimport \"./ERC20Gateway.sol\";\n\ncontract Gateway is ERC20Gateway, ERC721Receiver, ERC721XReceiver {\n\n  event ETHReceived(address from, uint256 amount);\n  event ERC721Received(address operator, address from, uint256 tokenId, address contractAddress, bytes data);\n  event ERC721XReceived(address operator, address from, uint256 tokenId, uint256 amount, address contractAddress, bytes data);\n  event ERC721XBatchReceived(address operator, address to, uint256[] tokenTypes, uint256[] amounts, address contractAddress, bytes data);\n\n  constructor (address loomToken, address[] _validators, uint8 _threshold_num, uint8 _threshold_denom)\n    public ERC20Gateway(loomToken, _validators, _threshold_num, _threshold_denom) {\n  }\n\n  function withdrawERC721X(uint256 tokenId, uint256 amount, bytes sig, address contractAddress)\n    external\n    signedByValidator(\n        createMessageWithdraw(\n            keccak256(abi.encodePacked(tokenId, amount, contractAddress))),\n            sig\n    )\n  {\n    ERC721X(contractAddress).safeTransferFrom(address(this), msg.sender, tokenId, amount);\n    emit TokenWithdrawn(msg.sender, TokenKind.ERC721X, contractAddress, amount);\n  }\n\n\n  function withdrawERC721(uint256 uid, bytes sig, address contractAddress)\n    external\n    signedByValidator(\n        createMessageWithdraw(\n            keccak256(abi.encodePacked(uid, contractAddress))),\n            sig\n    )\n  {\n    ERC721(contractAddress).safeTransferFrom(address(this),  msg.sender, uid);\n    emit TokenWithdrawn(msg.sender, TokenKind.ERC721, contractAddress, uid);\n  }\n\n  function withdrawETH(uint256 amount, bytes sig)\n    external\n    signedByValidator(\n        createMessageWithdraw(\n            keccak256(abi.encodePacked(amount))),\n            sig\n    )\n  {\n    msg.sender.transfer(amount); // ensure it's not reentrant\n    emit TokenWithdrawn(msg.sender, TokenKind.ETH, address(0), amount);\n  }\n\n  /// @dev Receiver functions for 1-step deposits to the gateway\n  /// @param _from Address of the token owner\n  /// @param _tokenId Id of the token or tokenId\n  /// @param _amount Amount of tokens received\n  /// @return ERC721X_RECEIVED bytes function signature\n  function onERC721XReceived(\n      address _operator,\n      address _from,\n      uint256 _tokenId,\n      uint256 _amount,\n      bytes _data\n  )\n    public\n    returns (bytes4)\n  {\n    require(allowAnyToken || allowedTokens[msg.sender], \"Not a valid token\");\n    emit ERC721XReceived(\n        _operator,\n        _from,\n        _tokenId,\n        _amount,\n        msg.sender,\n        _data\n    );\n    return ERC721X_RECEIVED;\n  }\n\n  function onERC721XBatchReceived(\n          address _operator,\n          address _from,\n          uint256[] _types,\n          uint256[] _amounts,\n          bytes _data\n  )\n    public\n    returns(bytes4) \n  {\n    require(allowAnyToken || allowedTokens[msg.sender], \"Not a valid token\");\n    uint256 length = _types.length;\n    require(length == _amounts.length);\n    emit ERC721XBatchReceived(\n        _operator,\n        _from,\n        _types,\n        _amounts,\n        msg.sender,\n        _data\n    );\n    return ERC721X_BATCH_RECEIVE_SIG;\n  }\n\n  function onERC721Received(address _operator, address _from, uint256 _uid, bytes _data)\n    public\n    returns (bytes4) \n  {\n    require(allowAnyToken || allowedTokens[msg.sender], \"Not a valid token\");\n    emit ERC721Received(_operator, _from, _uid, msg.sender, _data);\n    return ERC721_RECEIVED;\n  }\n\n  function () external payable {\n    emit ETHReceived(msg.sender, msg.value);\n  }\n\n  function getETH() external view returns (uint256) {\n      return address(this).balance;\n  }\n\n  // Check if contract owns specific erc721 token\n  function getERC721(uint256 uid, address contractAddress) external view returns (bool) {\n    return ERC721(contractAddress).ownerOf(uid) == address(this);\n  }\n\n  // Returns ERC721 token by uid\n  function getERC721X(uint256 tokenId, address contractAddress) external view returns (uint256) {\n    return ERC721X(contractAddress).balanceOf(address(this), tokenId);\n  }\n}\n",
  "sourcePath": "/home/gak/go/src/github.com/loomnetwork/transfer-gateway-v2/mainnet/contracts/Gateway.sol",
  "compiler": {
    "name": "solc",
    "version": "0.4.24+commit.e67f0147.Emscripten.clang"
  },
  "schemaVersion": "3.0.0-beta.0",
  "updatedAt": "2018-12-28T06:10:22.306Z"
}